:020000040800F2
:1000000000800120B5050008110200081302000855
:10001000150200081702000819020008000000007D
:100020000000000000000000000000001B020008AB
:100030001D020008000000001F0200082102000845
:100040000506000805060008050600080506000864
:100050000506000805060008050600080506000854
:100060000506000805060008050600080506000844
:100070000506000805060008050600080506000834
:100080000506000805060008050600080506000824
:1000900005060008050600080506000829020008F4
:1000A0000506000805060008050600080506000804
:1000B00005060008050600080506000805060008F4
:1000C00005060008050600080506000805060008E4
:1000D00005060008050600080506000805060008D4
:1000E0004702000805060008050600080506000886
:1000F00005060008050600080506000805060008B4
:1001000005060008050600080506000805060008A3
:100110000506000805060008050600080506000893
:100120000506000805060008050600080506000883
:100130000506000805060008050600080506000873
:100140000506000805060008050600080506000863
:100150000506000805060008050600080506000853
:100160000506000805060008050600080506000843
:100170000506000805060008000000000000000059
:08018000050600080506000851
:1001880010B5054C237833B9044B13B10448AFF3C9
:1001980000800123237010BD5000002000000000E3
:1001A8005006000808B5034B1BB103490348AFF3D9
:1001B800008008BD00000000540000205006000820
:1001C80000B58DB000F092F80E4B05930E23069300
:1001D800012307930893002309930A9302230B939F
:1001E8000CAB13E907008DE8070005AB0FCB00F057
:1001F80091F90E21034800F087F94FF47A7000F066
:1002080097F8F6E700040048FEE7FEE7FEE7FEE79A
:10021800FEE770477047704708B500F077F808BDEB
:1002280008B5202000F09EF8402000F09BF88020C0
:1002380000F098F84FF4807000F094F808BD08B505
:100248004FF4806000F08EF84FF4006000F08AF8F8
:100258004FF4005000F086F84FF4804000F082F828
:100268004FF4004000F07EF808BD000082B00A4B51
:100278001A6E42F001021A661A6E02F0010200922A
:10028800009A9A6D42F080529A659B6D03F08053F4
:100298000193019B02B0704700100240104B1B787D
:1002A8000BB90120704710B504464FF47A70B0FBC3
:1002B800F3F30C4A1068B0FBF3F000F0ABF868B940
:1002C8000F2C01D901200AE0002221464FF0FF300F
:1002D80000F068F8044B1C60002000E0012010BD0D
:1002E80000000020080000200400002010B50320B2
:1002F80000F046F80020FFF7D1FF10B10124204696
:1003080010BD0446FFF7B2FFF9E70000034B1B7866
:10031800034A11680B441360704700BF00000020B7
:100328006C000020014B1868704700BF6C0000206B
:1003380038B50446FFF7F6FF0546B4F1FF3F02D093
:10034800044B1B781C44FFF7EDFF401BA042FAD377
:1003580038BD00BF000000200AB18161704781628A
:100368007047000008B5054B5B69034200D108BD22
:10037800024B586100F06CF8F9E700BF0004014037
:10038800074AD36823F4E0631B041B0C000200F443
:10039800E060034343F0BF6343F40033D360704726
:1003A80000ED00E000B5194BDB68C3F30223C3F18D
:1003B800070CBCF1040F28BF4FF0040C03F1040E26
:1003C800BEF1060F18D9033B4FF0FF3E0EFA0CFCA6
:1003D80021EA0C0199400EFA03F322EA03031943B8
:1003E80000280BDB0901C9B200F1604000F561404B
:1003F80080F800135DF804FB0023E5E700F00F0028
:100408000901C9B2024B1954F4E700BF00ED00E03E
:1004180014ED00E00138B0F1807F0BD24FF0E023FB
:100428005861054AF02182F82310002098610722BC
:100438001A6170470120704700ED00E0034AD2F8C6
:10044800883043F47003C2F88830704700ED00E04C
:10045800B0F5005F00D0704708B50B4B1B784BB95F
:1004680001224FF480410948FFF776FF064B01222D
:100478001A7008BD00224FF480410448FFF76CFF52
:10048800014B00221A70F4E77000002000040048B5
:1004980070B405680A4E56F82140012303FA04FC9B
:1004A8001C44A3404CEA030325EA030303600368E2
:1004B80056F821108A401343036070BC704700BF90
:1004C8000C00002010B48368044C54F821108A40B2
:1004D800134383605DF8044B704700BF0C00002095
:1004E80043688A40134343607047000010B4C368F0
:1004F800044C54F821108A401343C3605DF8044B40
:10050800704700BF0C000020436901228A40534015
:100518004361704784B038B504AC84E80F000446E2
:10052800B0F1904F21D01D4B9C4224D01C4B9C42D3
:1005380027D01C4B9C422AD0059D079A2946204665
:10054800FFF7A6FF089A29462046FFF7C9FF0A9A2F
:1005580029462046FFF7B6FF099A29462046FFF7A5
:10056800C5FFBDE8384004B070470F4AD36C43F06C
:100578000103D364D7E70C4AD36C43F00203D36476
:10058800D4E7094AD36C43F00403D364D1E7064A9D
:10059800D36C43F00803D364CEE700BF00040048DF
:1005A80000080048000C004800100240DFF834D072
:1005B800FFF744FF0C480D490D4A002302E0D458C8
:1005C800C4500433C4188C42F9D30A4A0A4C002395
:1005D80001E013600432A242FBD300F011F8FFF7E8
:1005E800EFFDFEE700800120000000205000002001
:1005F800780600085000002074000020FEE7000084
:1006080070B50D4D0D4C641BA4100026A64209D1EF
:100618000B4D0C4C00F018F8641BA4100026A642E1
:1006280005D170BD55F8043B98470136EEE755F8FB
:10063800043B98470136F2E7680600086806000898
:10064800680600086C060008F8B500BFF8BC08BCCE
:100658009E467047F8B500BFF8BC08BC9E46704778
:08066800AD01000800000000D4
:080670008901000800000000F0
:10067800010000001000000000093D00000000001B
:10068800020000000400000006000000080000004E
:100698000A0000000C0000000E000000100000001E
:1006A80012000000140000001600000018000000EE
:1006B8001A0000001C0000001E00000000000000DE
:04000005080005B535
:00000001FF
